{
  "contractName": "gacha",
  "abi": [
    {
      "inputs": [],
      "payable": false,
      "stateMutability": "nonpayable",
      "type": "constructor"
    },
    {
      "anonymous": false,
      "inputs": [
        {
          "indexed": false,
          "internalType": "address",
          "name": "winner",
          "type": "address"
        },
        {
          "indexed": false,
          "internalType": "string",
          "name": "pickedItem",
          "type": "string"
        }
      ],
      "name": "PickedItem",
      "type": "event"
    },
    {
      "constant": true,
      "inputs": [
        {
          "internalType": "uint256",
          "name": "",
          "type": "uint256"
        }
      ],
      "name": "items",
      "outputs": [
        {
          "internalType": "string",
          "name": "",
          "type": "string"
        }
      ],
      "payable": false,
      "stateMutability": "view",
      "type": "function"
    },
    {
      "constant": true,
      "inputs": [
        {
          "internalType": "uint256",
          "name": "",
          "type": "uint256"
        }
      ],
      "name": "myItemList",
      "outputs": [
        {
          "internalType": "string",
          "name": "",
          "type": "string"
        }
      ],
      "payable": false,
      "stateMutability": "view",
      "type": "function"
    },
    {
      "constant": true,
      "inputs": [],
      "name": "getItems",
      "outputs": [
        {
          "internalType": "string[10]",
          "name": "",
          "type": "string[10]"
        }
      ],
      "payable": false,
      "stateMutability": "view",
      "type": "function"
    },
    {
      "constant": true,
      "inputs": [],
      "name": "getMyItemList",
      "outputs": [
        {
          "internalType": "string[]",
          "name": "",
          "type": "string[]"
        }
      ],
      "payable": false,
      "stateMutability": "view",
      "type": "function"
    },
    {
      "constant": true,
      "inputs": [],
      "name": "getBonus",
      "outputs": [
        {
          "internalType": "uint256",
          "name": "",
          "type": "uint256"
        }
      ],
      "payable": false,
      "stateMutability": "view",
      "type": "function"
    },
    {
      "constant": false,
      "inputs": [
        {
          "internalType": "uint256",
          "name": "_randNum",
          "type": "uint256"
        }
      ],
      "name": "draw",
      "outputs": [],
      "payable": true,
      "stateMutability": "payable",
      "type": "function"
    },
    {
      "constant": false,
      "inputs": [
        {
          "internalType": "uint256",
          "name": "_randNum",
          "type": "uint256"
        }
      ],
      "name": "freeDraw",
      "outputs": [],
      "payable": false,
      "stateMutability": "nonpayable",
      "type": "function"
    }
  ],
  "bytecode": "0x6080604052670de0b6b3a7640000600b556000600c553480156200002257600080fd5b506040518061014001604052806040518060400160405280600d81526020017f5a697020526f772053776f72640000000000000000000000000000000000000081525081526020016040518060400160405280600c81526020017f5365727665722e53776f7264000000000000000000000000000000000000000081525081526020016040518060400160405280600f81526020017f456d657267656e63792e53776f7264000000000000000000000000000000000081525081526020016040518060400160405280600f81526020017f54656d706f726172792e53776f7264000000000000000000000000000000000081525081526020016040518060400160405280601081526020017f4669786564207465726d2e53776f72640000000000000000000000000000000081525081526020016040518060400160405280600f81526020017f457874656e73696f6e2e53776f7264000000000000000000000000000000000081525081526020016040518060400160405280600d81526020017f5370656369616c2053776f72640000000000000000000000000000000000000081525081526020016040518060400160405280600981526020017f446f672053776f7264000000000000000000000000000000000000000000000081525081526020016040518060400160405280600c81526020017f4661746865722053776f7264000000000000000000000000000000000000000081525081526020016040518060400160405280600c81526020017f5468726561642053776f72640000000000000000000000000000000000000000815250815250600190600a6200028d92919062000294565b506200041a565b82600a8101928215620002db579160200282015b82811115620002da578251829080519060200190620002c9929190620002ee565b5091602001919060010190620002a8565b5b509050620002ea919062000375565b5090565b828054600181600116156101000203166002900490600052602060002090601f016020900481019282601f106200033157805160ff191683800117855562000362565b8280016001018555821562000362579182015b828111156200036157825182559160200191906001019062000344565b5b509050620003719190620003a6565b5090565b620003a391905b808211156200039f5760008181620003959190620003ce565b506001016200037c565b5090565b90565b620003cb91905b80821115620003c7576000816000905550600101620003ad565b5090565b90565b50805460018160011615610100020316600290046000825580601f10620003f6575062000417565b601f016020900490600052602060002090810190620004169190620003a6565b5b50565b610eff806200042a6000396000f3fe6080604052600436106100705760003560e01c8063410d59cc1161004e578063410d59cc146100e55780638bdff16114610110578063bfb231d21461013b578063f1559ce21461017857610070565b806306f2c95b1461007557806338009a0f1461009e5780633b304147146100c9575b600080fd5b34801561008157600080fd5b5061009c600480360361009791908101906108ba565b6101b5565b005b3480156100aa57600080fd5b506100b3610322565b6040516100c09190610c90565b60405180910390f35b6100e360048036036100de91908101906108ba565b61040b565b005b3480156100f157600080fd5b506100fa610581565b6040516101079190610c6e565b60405180910390f35b34801561011c57600080fd5b5061012561065e565b6040516101329190610d34565b60405180910390f35b34801561014757600080fd5b50610162600480360361015d91908101906108ba565b610668565b60405161016f9190610cb2565b60405180910390f35b34801561018457600080fd5b5061019f600480360361019a91908101906108ba565b610718565b6040516101ac9190610cb2565b60405180910390f35b655af3107a40008110156101fe576040517f08c379a00000000000000000000000000000000000000000000000000000000081526004016101f590610cf4565b60405180910390fd5b6005600c5414610243576040517f08c379a000000000000000000000000000000000000000000000000000000000815260040161023a90610d14565b60405180910390fd5b600a816040516020016102569190610c23565b6040516020818303038152906040528051906020012060001c8161027657fe5b0690506000600182600a811061028857fe5b0190806001815401808255809150509060018203906000526020600020016000909192909190915090805460018160011615610100020316600290046102cf9291906107d1565b50506000600c819055507f23b992488c61d45763e25a9d65b859ef17661265784abc4397c2e80cd8a3be9733600183600a811061030857fe5b01604051610317929190610c3e565b60405180910390a150565b60606000805480602002602001604051908101604052809291908181526020016000905b82821015610402578382906000526020600020018054600181600116156101000203166002900480601f0160208091040260200160405190810160405280929190818152602001828054600181600116156101000203166002900480156103ee5780601f106103c3576101008083540402835291602001916103ee565b820191906000526020600020905b8154815290600101906020018083116103d157829003601f168201915b505050505081526020019060010190610346565b50505050905090565b655af3107a4000811015610454576040517f08c379a000000000000000000000000000000000000000000000000000000000815260040161044b90610cf4565b60405180910390fd5b600b543414610498576040517f08c379a000000000000000000000000000000000000000000000000000000000815260040161048f90610cd4565b60405180910390fd5b600a816040516020016104ab9190610c23565b6040516020818303038152906040528051906020012060001c816104cb57fe5b0690506000600182600a81106104dd57fe5b0190806001815401808255809150509060018203906000526020600020016000909192909190915090805460018160011615610100020316600290046105249291906107d1565b5050600c600081548092919060010191905055507f23b992488c61d45763e25a9d65b859ef17661265784abc4397c2e80cd8a3be9733600183600a811061056757fe5b01604051610576929190610c3e565b60405180910390a150565b610589610858565b6001600a80602002604051908101604052809291906000905b82821015610655578382018054600181600116156101000203166002900480601f0160208091040260200160405190810160405280929190818152602001828054600181600116156101000203166002900480156106415780601f1061061657610100808354040283529160200191610641565b820191906000526020600020905b81548152906001019060200180831161062457829003601f168201915b5050505050815260200190600101906105a2565b50505050905090565b6000600c54905090565b600181600a811061067557fe5b016000915090508054600181600116156101000203166002900480601f0160208091040260200160405190810160405280929190818152602001828054600181600116156101000203166002900480156107105780601f106106e557610100808354040283529160200191610710565b820191906000526020600020905b8154815290600101906020018083116106f357829003601f168201915b505050505081565b6000818154811061072557fe5b906000526020600020016000915090508054600181600116156101000203166002900480601f0160208091040260200160405190810160405280929190818152602001828054600181600116156101000203166002900480156107c95780601f1061079e576101008083540402835291602001916107c9565b820191906000526020600020905b8154815290600101906020018083116107ac57829003601f168201915b505050505081565b828054600181600116156101000203166002900490600052602060002090601f016020900481019282601f1061080a5780548555610847565b8280016001018555821561084757600052602060002091601f016020900482015b8281111561084657825482559160010191906001019061082b565b5b5090506108549190610880565b5090565b604051806101400160405280600a905b60608152602001906001900390816108685790505090565b6108a291905b8082111561089e576000816000905550600101610886565b5090565b90565b6000813590506108b481610ea5565b92915050565b6000602082840312156108cc57600080fd5b60006108da848285016108a5565b91505092915050565b60006108ef83836109f0565b905092915050565b61090081610e21565b82525050565b600061091182610d7e565b61091b8185610db9565b93508360208202850161092d85610d4f565b8060005b85811015610969578484038952815161094a85826108e3565b945061095583610d9f565b925060208a01995050600181019050610931565b50829750879550505050505092915050565b600061098682610d89565b6109908185610dc4565b9350836020820285016109a285610d59565b8060005b858110156109de57848403895281516109bf85826108e3565b94506109ca83610dac565b925060208a019950506001810190506109a6565b50829750879550505050505092915050565b60006109fb82610d94565b610a058185610dd5565b9350610a15818560208601610e57565b610a1e81610e94565b840191505092915050565b6000610a3482610d94565b610a3e8185610de6565b9350610a4e818560208601610e57565b610a5781610e94565b840191505092915050565b600081546001811660008114610a7f5760018114610aa557610ae9565b607f6002830416610a908187610de6565b955060ff198316865260208601935050610ae9565b60028204610ab38187610de6565b9550610abe85610d69565b60005b82811015610ae057815481890152600182019150602081019050610ac1565b80880195505050505b505092915050565b6000610afe601783610de6565b91507f796f75206e65656420746f2070617920312065746865720000000000000000006000830152602082019050919050565b6000610b3e602783610de6565b91507f54686973206e756d62657220646f6573206e6f74206d6174636820746865207360008301527f74616e64617264000000000000000000000000000000000000000000000000006020830152604082019050919050565b6000610ba4602783610de6565b91507f4d757374206861766520646f6e652035207061696420647261777320696e207460008301527f68652070617374000000000000000000000000000000000000000000000000006020830152604082019050919050565b610c0681610e17565b82525050565b610c1d610c1882610e17565b610e8a565b82525050565b6000610c2f8284610c0c565b60208201915081905092915050565b6000604082019050610c5360008301856108f7565b8181036020830152610c658184610a62565b90509392505050565b60006020820190508181036000830152610c888184610906565b905092915050565b60006020820190508181036000830152610caa818461097b565b905092915050565b60006020820190508181036000830152610ccc8184610a29565b905092915050565b60006020820190508181036000830152610ced81610af1565b9050919050565b60006020820190508181036000830152610d0d81610b31565b9050919050565b60006020820190508181036000830152610d2d81610b97565b9050919050565b6000602082019050610d496000830184610bfd565b92915050565b6000819050919050565b6000819050602082019050919050565b60008190508160005260206000209050919050565b6000600a9050919050565b600081519050919050565b600081519050919050565b6000602082019050919050565b6000602082019050919050565b600081905092915050565b600082825260208201905092915050565b600082825260208201905092915050565b600082825260208201905092915050565b600073ffffffffffffffffffffffffffffffffffffffff82169050919050565b6000819050919050565b6000610e2c82610e33565b9050919050565b6000610e3e82610e45565b9050919050565b6000610e5082610df7565b9050919050565b60005b83811015610e75578082015181840152602081019050610e5a565b83811115610e84576000848401525b50505050565b6000819050919050565b6000601f19601f8301169050919050565b610eae81610e17565b8114610eb957600080fd5b5056fea365627a7a723158204e30cbe572da4c155ed4bb797a2972339b344f390c2277ddbdb2fe5edefba8586c6578706572696d656e74616cf564736f6c63430005100040",
  "source": "// SPDX-License-Identifier: GPL-3.0\r\n\r\npragma solidity >=0.5.0 <0.9.0;\r\npragma experimental ABIEncoderV2;\r\n\r\ncontract gacha {\r\n    string[] public myItemList;\r\n\r\n    string[10] public items;\r\n\r\n    constructor() public {\r\n        items = [\r\n            \"Zip Row Sword\",\r\n            \"Server.Sword\",\r\n            \"Emergency.Sword\",\r\n            \"Temporary.Sword\",\r\n            \"Fixed term.Sword\",\r\n            \"Extension.Sword\",\r\n            \"Special Sword\",\r\n            \"Dog Sword\",\r\n            \"Father Sword\",\r\n            \"Thread Sword\"\r\n        ];\r\n    }\r\n\r\n    event PickedItem(address winner, string pickedItem);\r\n\r\n    function getItems() public view returns (string[10] memory) {\r\n        return items;\r\n    }\r\n\r\n    function getMyItemList() public view returns (string[] memory) {\r\n        return myItemList;\r\n    }\r\n\r\n    function getBonus() public view returns (uint256) {\r\n        return bonus;\r\n    }\r\n\r\n    uint256 fee = 1 ether;\r\n    uint256 bonus = 0;\r\n\r\n    // 뽑기\r\n    function draw(uint256 _randNum) public payable {\r\n        require(_randNum >= 10**14, \"This number does not match the standard\");\r\n        require(msg.value == fee, \"you need to pay 1 ether\");\r\n        _randNum = uint256(keccak256(abi.encodePacked(_randNum))) % 10;\r\n        myItemList.push(items[_randNum]);\r\n        bonus++;\r\n        emit PickedItem(msg.sender, items[_randNum]);\r\n    }\r\n\r\n    // 무료뽑기\r\n    function freeDraw(uint256 _randNum) public {\r\n        require(_randNum >= 10**14, \"This number does not match the standard\");\r\n        require(bonus == 5, \"Must have done 5 paid draws in the past\");\r\n        _randNum = uint256(keccak256(abi.encodePacked(_randNum))) % 10;\r\n        myItemList.push(items[_randNum]);\r\n        bonus = 0;\r\n        emit PickedItem(msg.sender, items[_randNum]);\r\n    }\r\n}\r\n",
  "sourcePath": "D:\\sangmin\\Development\\sangmin\\Gacha\\contracts\\Gacha.sol",
  "compiler": {
    "name": "solc",
    "version": "0.5.16+commit.9c3226ce.Emscripten.clang"
  },
  "schemaVersion": "3.4.5",
  "updatedAt": "2022-03-03T16:41:02.650Z",
  "networkType": "ethereum",
  "devdoc": {
    "methods": {}
  },
  "userdoc": {
    "methods": {}
  }
}